:100000000C942A000C943F000C943F000C943F0089
:100010000C943F000C943F000C943F000C943F0064
:100020000C943F000C943F000C943F000C943F0054
:100030000C943F000C943F000C943F000C943F0044
:100040000C943F000C943F000C943F000C943F0034
:100050000C943F0011241FBECFE5D8E0DEBFCDBF1A
:1000600010E0A0E6B0E0E8E7F4E002C005900D92F1
:10007000A837B107D9F70E9441000C943A020C94BA
:1000800000000E94B6010E94A80082E790E00E9452
:100090001C01FFCFCF93C82F60E081E00E942F01A9
:1000A00060E082E00E942F01C4FB662760F983E0D4
:1000B0000E942F01C5FB662760F984E00E942F0192
:1000C000C6FB662760F985E00E942F016C2F661F32
:1000D0006627661F86E00E942F0161E082E00E9491
:1000E0002F0189EF90E00197F1F700C0000060E078
:1000F00082E00E942F016C2F617083E00E942F012B
:10010000C1FB662760F984E00E942F01C2FB6627CD
:1001100060F985E00E942F01C3FB662760F986E045
:100120000E942F0161E082E00E942F0189EF90E0A0
:100130000197F1F700C0000060E082E00E942F010B
:1001400081EE94E00197F1F700C00000CF9108958F
:1001500083E30E944A0082E30E944A0088E20E94F0
:100160004A008EE00E944A0081E00E944A0086E038
:100170000E944A0082E00E944A000895CF93C82F4F
:1001800061E081E00E942F0160E082E00E942F0187
:10019000C4FB662760F983E00E942F01C5FB662738
:1001A00060F984E00E942F01C6FB662760F985E0B4
:1001B0000E942F016C2F661F6627661F86E00E9433
:1001C0002F0161E082E00E942F0189EF90E001970A
:1001D000F1F700C0000060E082E00E942F016C2F68
:1001E000617083E00E942F01C1FB662760F984E003
:1001F0000E942F01C2FB662760F985E00E942F0153
:10020000C3FB662760F986E00E942F0161E082E06F
:100210000E942F0189EF90E00197F1F700C00000E4
:1002200060E082E00E942F0181EE94E00197F1F7F7
:1002300000C00000CF9108950F931F93CF938C01BE
:10024000CFEF03C00E94BE00CF5FF801EC0FF11D9D
:1002500080818111F7CFCF911F910F910895982F31
:100260009695969596958770662309F43FC0613000
:1002700009F07BC0913099F028F09230E9F093308A
:1002800041F108954BB321E030E0B90102C0660F9F
:10029000771F8A95E2F7CB01842B8BBB089548B377
:1002A00021E030E0B90102C0660F771F8A95E2F7BE
:1002B000CB01842B88BB089545B321E030E0B90120
:1002C00002C0660F771F8A95E2F7CB01842B85BBAE
:1002D000089542B321E030E0B90102C0660F771FF4
:1002E0008A95E2F7CB01842B82BB08959130A1F06F
:1002F00028F09230F9F0933059F108954BB321E092
:1003000030E0B90102C0660F771F8A95E2F7CB0192
:10031000809584238BBB089548B321E030E0B90178
:1003200002C0660F771F8A95E2F7CB018095842380
:1003300088BB089545B321E030E0B90102C0660FE3
:10034000771F8A95E2F7CB018095842385BB0895BA
:1003500042B321E030E0B90102C0660F771F8A95F1
:10036000E2F7CB018095842382BB089590E07EC0A4
:10037000E92FF0E0EE0FFF1FE05AFF4F8081282F9A
:10038000269526952695877031813323B9F1313032
:1003900009F06BC0213089F028F02230C9F02330F9
:1003A00011F163C04AB321E030E002C0220F331FD5
:1003B0008A95E2F7242B2ABB58C047B321E030E0EE
:1003C00002C0220F331F8A95E2F7242B27BB4DC0B2
:1003D00044B321E030E002C0220F331F8A95E2F7D8
:1003E000242B24BB42C041B321E030E002C0220FE5
:1003F000331F8A95E2F7242B21BB37C0213091F0BF
:1004000028F02230D9F0233029F12FC04AB321E05F
:1004100030E002C0220F331F8A95E2F72095242393
:100420002ABB23C047B321E030E002C0220F331FB4
:100430008A95E2F72095242327BB17C044B321E017
:1004400030E002C0220F331F8A95E2F72095242363
:1004500024BB0BC041B321E030E002C0220F331FA8
:100460008A95E2F72095242321BB9F5F993008F4F9
:080470007FCF0895F894FFCF3F
:1004780011011A001A00020101010301040105011A
:08048800060154454C424F00EF
:00000001FF
